{
  "_format": "hh-sol-artifact-1",
  "contractName": "GOONZ",
  "sourceName": "contracts/Goonz.sol",
  "abi": [
    {
      "inputs": [],
      "stateMutability": "nonpayable",
      "type": "constructor"
    },
    {
      "anonymous": false,
      "inputs": [
        {
          "indexed": true,
          "internalType": "address",
          "name": "owner",
          "type": "address"
        },
        {
          "indexed": true,
          "internalType": "address",
          "name": "spender",
          "type": "address"
        },
        {
          "indexed": false,
          "internalType": "uint256",
          "name": "value",
          "type": "uint256"
        }
      ],
      "name": "Approval",
      "type": "event"
    },
    {
      "anonymous": false,
      "inputs": [
        {
          "indexed": false,
          "internalType": "address",
          "name": "account",
          "type": "address"
        }
      ],
      "name": "Paused",
      "type": "event"
    },
    {
      "anonymous": false,
      "inputs": [
        {
          "indexed": true,
          "internalType": "bytes32",
          "name": "role",
          "type": "bytes32"
        },
        {
          "indexed": true,
          "internalType": "bytes32",
          "name": "previousAdminRole",
          "type": "bytes32"
        },
        {
          "indexed": true,
          "internalType": "bytes32",
          "name": "newAdminRole",
          "type": "bytes32"
        }
      ],
      "name": "RoleAdminChanged",
      "type": "event"
    },
    {
      "anonymous": false,
      "inputs": [
        {
          "indexed": true,
          "internalType": "bytes32",
          "name": "role",
          "type": "bytes32"
        },
        {
          "indexed": true,
          "internalType": "address",
          "name": "account",
          "type": "address"
        },
        {
          "indexed": true,
          "internalType": "address",
          "name": "sender",
          "type": "address"
        }
      ],
      "name": "RoleGranted",
      "type": "event"
    },
    {
      "anonymous": false,
      "inputs": [
        {
          "indexed": true,
          "internalType": "bytes32",
          "name": "role",
          "type": "bytes32"
        },
        {
          "indexed": true,
          "internalType": "address",
          "name": "account",
          "type": "address"
        },
        {
          "indexed": true,
          "internalType": "address",
          "name": "sender",
          "type": "address"
        }
      ],
      "name": "RoleRevoked",
      "type": "event"
    },
    {
      "anonymous": false,
      "inputs": [
        {
          "indexed": true,
          "internalType": "address",
          "name": "from",
          "type": "address"
        },
        {
          "indexed": true,
          "internalType": "address",
          "name": "to",
          "type": "address"
        },
        {
          "indexed": false,
          "internalType": "uint256",
          "name": "value",
          "type": "uint256"
        }
      ],
      "name": "Transfer",
      "type": "event"
    },
    {
      "anonymous": false,
      "inputs": [
        {
          "indexed": false,
          "internalType": "address",
          "name": "account",
          "type": "address"
        }
      ],
      "name": "Unpaused",
      "type": "event"
    },
    {
      "inputs": [],
      "name": "BURNER_ROLE",
      "outputs": [
        {
          "internalType": "bytes32",
          "name": "",
          "type": "bytes32"
        }
      ],
      "stateMutability": "view",
      "type": "function"
    },
    {
      "inputs": [],
      "name": "DEFAULT_ADMIN_ROLE",
      "outputs": [
        {
          "internalType": "bytes32",
          "name": "",
          "type": "bytes32"
        }
      ],
      "stateMutability": "view",
      "type": "function"
    },
    {
      "inputs": [],
      "name": "MINTER_ROLE",
      "outputs": [
        {
          "internalType": "bytes32",
          "name": "",
          "type": "bytes32"
        }
      ],
      "stateMutability": "view",
      "type": "function"
    },
    {
      "inputs": [],
      "name": "PAUSER_ROLE",
      "outputs": [
        {
          "internalType": "bytes32",
          "name": "",
          "type": "bytes32"
        }
      ],
      "stateMutability": "view",
      "type": "function"
    },
    {
      "inputs": [
        {
          "internalType": "address",
          "name": "owner",
          "type": "address"
        },
        {
          "internalType": "address",
          "name": "spender",
          "type": "address"
        }
      ],
      "name": "allowance",
      "outputs": [
        {
          "internalType": "uint256",
          "name": "",
          "type": "uint256"
        }
      ],
      "stateMutability": "view",
      "type": "function"
    },
    {
      "inputs": [
        {
          "internalType": "address",
          "name": "spender",
          "type": "address"
        },
        {
          "internalType": "uint256",
          "name": "amount",
          "type": "uint256"
        }
      ],
      "name": "approve",
      "outputs": [
        {
          "internalType": "bool",
          "name": "",
          "type": "bool"
        }
      ],
      "stateMutability": "nonpayable",
      "type": "function"
    },
    {
      "inputs": [
        {
          "internalType": "address",
          "name": "account",
          "type": "address"
        }
      ],
      "name": "balanceOf",
      "outputs": [
        {
          "internalType": "uint256",
          "name": "",
          "type": "uint256"
        }
      ],
      "stateMutability": "view",
      "type": "function"
    },
    {
      "inputs": [
        {
          "internalType": "uint256",
          "name": "amount",
          "type": "uint256"
        }
      ],
      "name": "burn",
      "outputs": [],
      "stateMutability": "nonpayable",
      "type": "function"
    },
    {
      "inputs": [
        {
          "internalType": "address",
          "name": "from",
          "type": "address"
        },
        {
          "internalType": "uint256",
          "name": "amount",
          "type": "uint256"
        }
      ],
      "name": "burnBurner",
      "outputs": [],
      "stateMutability": "nonpayable",
      "type": "function"
    },
    {
      "inputs": [
        {
          "internalType": "address",
          "name": "account",
          "type": "address"
        },
        {
          "internalType": "uint256",
          "name": "amount",
          "type": "uint256"
        }
      ],
      "name": "burnFrom",
      "outputs": [],
      "stateMutability": "nonpayable",
      "type": "function"
    },
    {
      "inputs": [],
      "name": "decimals",
      "outputs": [
        {
          "internalType": "uint8",
          "name": "",
          "type": "uint8"
        }
      ],
      "stateMutability": "view",
      "type": "function"
    },
    {
      "inputs": [
        {
          "internalType": "address",
          "name": "spender",
          "type": "address"
        },
        {
          "internalType": "uint256",
          "name": "subtractedValue",
          "type": "uint256"
        }
      ],
      "name": "decreaseAllowance",
      "outputs": [
        {
          "internalType": "bool",
          "name": "",
          "type": "bool"
        }
      ],
      "stateMutability": "nonpayable",
      "type": "function"
    },
    {
      "inputs": [
        {
          "internalType": "bytes32",
          "name": "role",
          "type": "bytes32"
        }
      ],
      "name": "getRoleAdmin",
      "outputs": [
        {
          "internalType": "bytes32",
          "name": "",
          "type": "bytes32"
        }
      ],
      "stateMutability": "view",
      "type": "function"
    },
    {
      "inputs": [
        {
          "internalType": "bytes32",
          "name": "role",
          "type": "bytes32"
        },
        {
          "internalType": "uint256",
          "name": "index",
          "type": "uint256"
        }
      ],
      "name": "getRoleMember",
      "outputs": [
        {
          "internalType": "address",
          "name": "",
          "type": "address"
        }
      ],
      "stateMutability": "view",
      "type": "function"
    },
    {
      "inputs": [
        {
          "internalType": "bytes32",
          "name": "role",
          "type": "bytes32"
        }
      ],
      "name": "getRoleMemberCount",
      "outputs": [
        {
          "internalType": "uint256",
          "name": "",
          "type": "uint256"
        }
      ],
      "stateMutability": "view",
      "type": "function"
    },
    {
      "inputs": [
        {
          "internalType": "bytes32",
          "name": "role",
          "type": "bytes32"
        },
        {
          "internalType": "address",
          "name": "account",
          "type": "address"
        }
      ],
      "name": "grantRole",
      "outputs": [],
      "stateMutability": "nonpayable",
      "type": "function"
    },
    {
      "inputs": [
        {
          "internalType": "bytes32",
          "name": "role",
          "type": "bytes32"
        },
        {
          "internalType": "address",
          "name": "account",
          "type": "address"
        }
      ],
      "name": "hasRole",
      "outputs": [
        {
          "internalType": "bool",
          "name": "",
          "type": "bool"
        }
      ],
      "stateMutability": "view",
      "type": "function"
    },
    {
      "inputs": [
        {
          "internalType": "address",
          "name": "spender",
          "type": "address"
        },
        {
          "internalType": "uint256",
          "name": "addedValue",
          "type": "uint256"
        }
      ],
      "name": "increaseAllowance",
      "outputs": [
        {
          "internalType": "bool",
          "name": "",
          "type": "bool"
        }
      ],
      "stateMutability": "nonpayable",
      "type": "function"
    },
    {
      "inputs": [
        {
          "internalType": "address",
          "name": "to",
          "type": "address"
        },
        {
          "internalType": "uint256",
          "name": "amount",
          "type": "uint256"
        }
      ],
      "name": "mint",
      "outputs": [],
      "stateMutability": "nonpayable",
      "type": "function"
    },
    {
      "inputs": [],
      "name": "name",
      "outputs": [
        {
          "internalType": "string",
          "name": "",
          "type": "string"
        }
      ],
      "stateMutability": "view",
      "type": "function"
    },
    {
      "inputs": [],
      "name": "pause",
      "outputs": [],
      "stateMutability": "nonpayable",
      "type": "function"
    },
    {
      "inputs": [],
      "name": "paused",
      "outputs": [
        {
          "internalType": "bool",
          "name": "",
          "type": "bool"
        }
      ],
      "stateMutability": "view",
      "type": "function"
    },
    {
      "inputs": [
        {
          "internalType": "bytes32",
          "name": "role",
          "type": "bytes32"
        },
        {
          "internalType": "address",
          "name": "account",
          "type": "address"
        }
      ],
      "name": "renounceRole",
      "outputs": [],
      "stateMutability": "nonpayable",
      "type": "function"
    },
    {
      "inputs": [
        {
          "internalType": "bytes32",
          "name": "role",
          "type": "bytes32"
        },
        {
          "internalType": "address",
          "name": "account",
          "type": "address"
        }
      ],
      "name": "revokeRole",
      "outputs": [],
      "stateMutability": "nonpayable",
      "type": "function"
    },
    {
      "inputs": [
        {
          "internalType": "bytes4",
          "name": "interfaceId",
          "type": "bytes4"
        }
      ],
      "name": "supportsInterface",
      "outputs": [
        {
          "internalType": "bool",
          "name": "",
          "type": "bool"
        }
      ],
      "stateMutability": "view",
      "type": "function"
    },
    {
      "inputs": [],
      "name": "symbol",
      "outputs": [
        {
          "internalType": "string",
          "name": "",
          "type": "string"
        }
      ],
      "stateMutability": "view",
      "type": "function"
    },
    {
      "inputs": [],
      "name": "totalSupply",
      "outputs": [
        {
          "internalType": "uint256",
          "name": "",
          "type": "uint256"
        }
      ],
      "stateMutability": "view",
      "type": "function"
    },
    {
      "inputs": [
        {
          "internalType": "address",
          "name": "recipient",
          "type": "address"
        },
        {
          "internalType": "uint256",
          "name": "amount",
          "type": "uint256"
        }
      ],
      "name": "transfer",
      "outputs": [
        {
          "internalType": "bool",
          "name": "",
          "type": "bool"
        }
      ],
      "stateMutability": "nonpayable",
      "type": "function"
    },
    {
      "inputs": [
        {
          "internalType": "address",
          "name": "sender",
          "type": "address"
        },
        {
          "internalType": "address",
          "name": "recipient",
          "type": "address"
        },
        {
          "internalType": "uint256",
          "name": "amount",
          "type": "uint256"
        }
      ],
      "name": "transferFrom",
      "outputs": [
        {
          "internalType": "bool",
          "name": "",
          "type": "bool"
        }
      ],
      "stateMutability": "nonpayable",
      "type": "function"
    },
    {
      "inputs": [],
      "name": "unpause",
      "outputs": [],
      "stateMutability": "nonpayable",
      "type": "function"
    }
  ],
  "bytecode": "0x60806040523480156200001157600080fd5b506040518060400160405280600f81526020016e2837b63cb3b7b7b73d102a37b5b2b760891b8152506040518060400160405280600581526020016423a7a7a72d60d91b815250816005908051906020019062000070929190620004f8565b50805162000086906006906020840190620004f8565b50506007805460ff1916905550620000a060003362000152565b620000cc7f9f2df0fed2c77648de5860a4cc508cd0818c85b8b8a1ab4ceeef8d981c8956a63362000152565b620000f87f65d7a28e3265b37a6474929f336521b332c1681b933f6cb9f3376673440d862a3362000152565b620001247f3c11d16cbaffd01df69ce1c404f6340ee057498f5f00246190ea54220576a8483362000152565b6200014c33620001376012600a62000602565b6200014690621312d0620006be565b62000195565b62000733565b6200016982826200024f60201b62000acd1760201c565b60008281526001602090815260409091206200019091839062000ad76200025b821b17901c565b505050565b3360009081527f0781d7cac9c378efa22a7481e4d4d29704a680ddf504b3bc50b517700ee11e6c602052604090205460ff166200023f5760405162461bcd60e51b815260206004820152603660248201527f45524332305072657365744d696e7465725061757365723a206d75737420686160448201527f7665206d696e74657220726f6c6520746f206d696e740000000000000000000060648201526084015b60405180910390fd5b6200024b82826200027b565b5050565b6200024b82826200036e565b600062000272836001600160a01b0384166200040e565b90505b92915050565b6001600160a01b038216620002d35760405162461bcd60e51b815260206004820152601f60248201527f45524332303a206d696e7420746f20746865207a65726f206164647265737300604482015260640162000236565b620002e16000838362000460565b8060046000828254620002f591906200059e565b90915550506001600160a01b03821660009081526002602052604081208054839290620003249084906200059e565b90915550506040518181526001600160a01b038316906000907fddf252ad1be2c89b69c2b068fc378daa952ba7f163c4a11628f55a4df523b3ef9060200160405180910390a35050565b6000828152602081815260408083206001600160a01b038516845290915290205460ff166200024b576000828152602081815260408083206001600160a01b03851684529091529020805460ff19166001179055620003ca3390565b6001600160a01b0316816001600160a01b0316837f2f8788117e7eff1d82e926ec794901d17c78024a50270940304540a733656f0d60405160405180910390a45050565b6000818152600183016020526040812054620004575750815460018181018455600084815260208082209093018490558454848252828601909352604090209190915562000275565b50600062000275565b620001908383836200047860201b62000aec1760201c565b620004908383836200019060201b6200063d1760201c565b60075460ff1615620001905760405162461bcd60e51b815260206004820152602a60248201527f45524332305061757361626c653a20746f6b656e207472616e736665722077686044820152691a5b19481c185d5cd95960b21b606482015260840162000236565b8280546200050690620006e0565b90600052602060002090601f0160209004810192826200052a576000855562000575565b82601f106200054557805160ff191683800117855562000575565b8280016001018555821562000575579182015b828111156200057557825182559160200191906001019062000558565b506200058392915062000587565b5090565b5b8082111562000583576000815560010162000588565b60008219821115620005b457620005b46200071d565b500190565b600181815b80851115620005fa578160001904821115620005de57620005de6200071d565b80851615620005ec57918102915b93841c9390800290620005be565b509250929050565b60006200027283836000826200061b5750600162000275565b816200062a5750600062000275565b81600181146200064357600281146200064e576200066e565b600191505062000275565b60ff8411156200066257620006626200071d565b50506001821b62000275565b5060208310610133831016604e8410600b841016171562000693575081810a62000275565b6200069f8383620005b9565b8060001904821115620006b657620006b66200071d565b029392505050565b6000816000190483118215151615620006db57620006db6200071d565b500290565b600181811c90821680620006f557607f821691505b602082108114156200071757634e487b7160e01b600052602260045260246000fd5b50919050565b634e487b7160e01b600052601160045260246000fd5b611a8480620007436000396000f3fe608060405234801561001057600080fd5b50600436106101da5760003560e01c80636328bc0511610104578063a217fddf116100a2578063d539139311610071578063d5391393146103ff578063d547741f14610426578063dd62ed3e14610439578063e63ab1e91461047257600080fd5b8063a217fddf146103be578063a457c2d7146103c6578063a9059cbb146103d9578063ca15c873146103ec57600080fd5b80638456cb59116100de5780638456cb59146103705780639010d07c1461037857806391d14854146103a357806395d89b41146103b657600080fd5b80636328bc051461032157806370a082311461033457806379cc67901461035d57600080fd5b80632f2ff15d1161017c5780633f4ba83a1161014b5780633f4ba83a146102e857806340c10f19146102f057806342966c68146103035780635c975abb1461031657600080fd5b80632f2ff15d1461029e578063313ce567146102b357806336568abe146102c257806339509351146102d557600080fd5b806318160ddd116101b857806318160ddd1461022f57806323b872dd14610241578063248a9ca314610254578063282c51f31461027757600080fd5b806301ffc9a7146101df57806306fdde0314610207578063095ea7b31461021c575b600080fd5b6101f26101ed366004611858565b610499565b60405190151581526020015b60405180910390f35b61020f6104c4565b6040516101fe91906118f7565b6101f261022a3660046117d0565b610556565b6004545b6040519081526020016101fe565b6101f261024f366004611794565b61056c565b6102336102623660046117fa565b60009081526020819052604090206001015490565b6102337f3c11d16cbaffd01df69ce1c404f6340ee057498f5f00246190ea54220576a84881565b6102b16102ac366004611813565b61061b565b005b604051601281526020016101fe565b6102b16102d0366004611813565b610642565b6101f26102e33660046117d0565b610664565b6102b16106a0565b6102b16102fe3660046117d0565b610746565b6102b16103113660046117fa565b6107e9565b60075460ff166101f2565b6102b161032f3660046117d0565b6107f6565b610233610342366004611746565b6001600160a01b031660009081526002602052604090205490565b6102b161036b3660046117d0565b61088a565b6102b161090b565b61038b610386366004611836565b6109af565b6040516001600160a01b0390911681526020016101fe565b6101f26103b1366004611813565b6109ce565b61020f6109f7565b610233600081565b6101f26103d43660046117d0565b610a06565b6101f26103e73660046117d0565b610a9f565b6102336103fa3660046117fa565b610aac565b6102337f9f2df0fed2c77648de5860a4cc508cd0818c85b8b8a1ab4ceeef8d981c8956a681565b6102b1610434366004611813565b610ac3565b610233610447366004611761565b6001600160a01b03918216600090815260036020908152604080832093909416825291909152205490565b6102337f65d7a28e3265b37a6474929f336521b332c1681b933f6cb9f3376673440d862a81565b60006001600160e01b03198216635a05180f60e01b14806104be57506104be82610b52565b92915050565b6060600580546104d3906119bb565b80601f01602080910402602001604051908101604052809291908181526020018280546104ff906119bb565b801561054c5780601f106105215761010080835404028352916020019161054c565b820191906000526020600020905b81548152906001019060200180831161052f57829003601f168201915b5050505050905090565b6000610563338484610b87565b50600192915050565b6000610579848484610cab565b6001600160a01b0384166000908152600360209081526040808320338452909152902054828110156106035760405162461bcd60e51b815260206004820152602860248201527f45524332303a207472616e7366657220616d6f756e74206578636565647320616044820152676c6c6f77616e636560c01b60648201526084015b60405180910390fd5b6106108533858403610b87565b506001949350505050565b6106258282610e86565b600082815260016020526040902061063d9082610ad7565b505050565b61064c8282610eac565b600082815260016020526040902061063d9082610f26565b3360008181526003602090815260408083206001600160a01b0387168452909152812054909161056391859061069b90869061192a565b610b87565b6106ca7f65d7a28e3265b37a6474929f336521b332c1681b933f6cb9f3376673440d862a336109ce565b61073c5760405162461bcd60e51b815260206004820152603960248201527f45524332305072657365744d696e7465725061757365723a206d75737420686160448201527f76652070617573657220726f6c6520746f20756e70617573650000000000000060648201526084016105fa565b610744610f3b565b565b6107707f9f2df0fed2c77648de5860a4cc508cd0818c85b8b8a1ab4ceeef8d981c8956a6336109ce565b6107db5760405162461bcd60e51b815260206004820152603660248201527f45524332305072657365744d696e7465725061757365723a206d7573742068616044820152751d99481b5a5b9d195c881c9bdb19481d1bc81b5a5b9d60521b60648201526084016105fa565b6107e58282610fce565b5050565b6107f333826110b9565b50565b6108207f3c11d16cbaffd01df69ce1c404f6340ee057498f5f00246190ea54220576a848336109ce565b6108805760405162461bcd60e51b815260206004820152602b60248201527f4275726e65723a206d7573742068617665204275726e657220726f6c6520746f60448201526a10313ab937213ab93732b960a91b60648201526084016105fa565b6107e582826110b9565b60006108968333610447565b9050818110156108f45760405162461bcd60e51b8152602060048201526024808201527f45524332303a206275726e20616d6f756e74206578636565647320616c6c6f77604482015263616e636560e01b60648201526084016105fa565b6109018333848403610b87565b61063d83836110b9565b6109357f65d7a28e3265b37a6474929f336521b332c1681b933f6cb9f3376673440d862a336109ce565b6109a75760405162461bcd60e51b815260206004820152603760248201527f45524332305072657365744d696e7465725061757365723a206d75737420686160448201527f76652070617573657220726f6c6520746f20706175736500000000000000000060648201526084016105fa565b610744611213565b60008281526001602052604081206109c7908361128e565b9392505050565b6000918252602082815260408084206001600160a01b0393909316845291905290205460ff1690565b6060600680546104d3906119bb565b3360009081526003602090815260408083206001600160a01b038616845290915281205482811015610a885760405162461bcd60e51b815260206004820152602560248201527f45524332303a2064656372656173656420616c6c6f77616e63652062656c6f77604482015264207a65726f60d81b60648201526084016105fa565b610a953385858403610b87565b5060019392505050565b6000610563338484610cab565b60008181526001602052604081206104be9061129a565b61064c82826112a4565b6107e582826112ca565b60006109c7836001600160a01b03841661134e565b60075460ff161561063d5760405162461bcd60e51b815260206004820152602a60248201527f45524332305061757361626c653a20746f6b656e207472616e736665722077686044820152691a5b19481c185d5cd95960b21b60648201526084016105fa565b60006001600160e01b03198216637965db0b60e01b14806104be57506301ffc9a760e01b6001600160e01b03198316146104be565b6001600160a01b038316610be95760405162461bcd60e51b8152602060048201526024808201527f45524332303a20617070726f76652066726f6d20746865207a65726f206164646044820152637265737360e01b60648201526084016105fa565b6001600160a01b038216610c4a5760405162461bcd60e51b815260206004820152602260248201527f45524332303a20617070726f766520746f20746865207a65726f206164647265604482015261737360f01b60648201526084016105fa565b6001600160a01b0383811660008181526003602090815260408083209487168084529482529182902085905590518481527f8c5be1e5ebec7d5bd14f71427d1e84f3dd0314c0f7b2291e5b200ac8c7c3b925910160405180910390a3505050565b6001600160a01b038316610d0f5760405162461bcd60e51b815260206004820152602560248201527f45524332303a207472616e736665722066726f6d20746865207a65726f206164604482015264647265737360d81b60648201526084016105fa565b6001600160a01b038216610d715760405162461bcd60e51b815260206004820152602360248201527f45524332303a207472616e7366657220746f20746865207a65726f206164647260448201526265737360e81b60648201526084016105fa565b610d7c83838361139d565b6001600160a01b03831660009081526002602052604090205481811015610df45760405162461bcd60e51b815260206004820152602660248201527f45524332303a207472616e7366657220616d6f756e7420657863656564732062604482015265616c616e636560d01b60648201526084016105fa565b6001600160a01b03808516600090815260026020526040808220858503905591851681529081208054849290610e2b90849061192a565b92505081905550826001600160a01b0316846001600160a01b03167fddf252ad1be2c89b69c2b068fc378daa952ba7f163c4a11628f55a4df523b3ef84604051610e7791815260200190565b60405180910390a35b50505050565b600082815260208190526040902060010154610ea281336113a8565b61063d83836112ca565b6001600160a01b0381163314610f1c5760405162461bcd60e51b815260206004820152602f60248201527f416363657373436f6e74726f6c3a2063616e206f6e6c792072656e6f756e636560448201526e103937b632b9903337b91039b2b63360891b60648201526084016105fa565b6107e5828261140c565b60006109c7836001600160a01b038416611471565b60075460ff16610f845760405162461bcd60e51b815260206004820152601460248201527314185d5cd8589b194e881b9bdd081c185d5cd95960621b60448201526064016105fa565b6007805460ff191690557f5db9ee0a495bf2e6ff9c91a7834c1ba4fdd244a5e8aa4e537bd38aeae4b073aa335b6040516001600160a01b03909116815260200160405180910390a1565b6001600160a01b0382166110245760405162461bcd60e51b815260206004820152601f60248201527f45524332303a206d696e7420746f20746865207a65726f20616464726573730060448201526064016105fa565b6110306000838361139d565b8060046000828254611042919061192a565b90915550506001600160a01b0382166000908152600260205260408120805483929061106f90849061192a565b90915550506040518181526001600160a01b038316906000907fddf252ad1be2c89b69c2b068fc378daa952ba7f163c4a11628f55a4df523b3ef9060200160405180910390a35050565b6001600160a01b0382166111195760405162461bcd60e51b815260206004820152602160248201527f45524332303a206275726e2066726f6d20746865207a65726f206164647265736044820152607360f81b60648201526084016105fa565b6111258260008361139d565b6001600160a01b038216600090815260026020526040902054818110156111995760405162461bcd60e51b815260206004820152602260248201527f45524332303a206275726e20616d6f756e7420657863656564732062616c616e604482015261636560f01b60648201526084016105fa565b6001600160a01b03831660009081526002602052604081208383039055600480548492906111c8908490611961565b90915550506040518281526000906001600160a01b038516907fddf252ad1be2c89b69c2b068fc378daa952ba7f163c4a11628f55a4df523b3ef9060200160405180910390a3505050565b60075460ff16156112595760405162461bcd60e51b815260206004820152601060248201526f14185d5cd8589b194e881c185d5cd95960821b60448201526064016105fa565b6007805460ff191660011790557f62e78cea01bee320cd4e420270b5ea74000d11b0c9f74754ebdbfc544b05a258610fb13390565b60006109c78383611564565b60006104be825490565b6000828152602081905260409020600101546112c081336113a8565b61063d838361140c565b6112d482826109ce565b6107e5576000828152602081815260408083206001600160a01b03851684529091529020805460ff1916600117905561130a3390565b6001600160a01b0316816001600160a01b0316837f2f8788117e7eff1d82e926ec794901d17c78024a50270940304540a733656f0d60405160405180910390a45050565b6000818152600183016020526040812054611395575081546001818101845560008481526020808220909301849055845484825282860190935260409020919091556104be565b5060006104be565b61063d838383610aec565b6113b282826109ce565b6107e5576113ca816001600160a01b0316601461158e565b6113d583602061158e565b6040516020016113e6929190611882565b60408051601f198184030181529082905262461bcd60e51b82526105fa916004016118f7565b61141682826109ce565b156107e5576000828152602081815260408083206001600160a01b0385168085529252808320805460ff1916905551339285917ff6391f5c32d9c69d2a47ea670b442974b53935d1edc7fd64eb21e047a839171b9190a45050565b6000818152600183016020526040812054801561155a576000611495600183611961565b85549091506000906114a990600190611961565b905081811461150e5760008660000182815481106114c9576114c9611a22565b90600052602060002001549050808760000184815481106114ec576114ec611a22565b6000918252602080832090910192909255918252600188019052604090208390555b855486908061151f5761151f611a0c565b6001900381819060005260206000200160009055905585600101600086815260200190815260200160002060009055600193505050506104be565b60009150506104be565b600082600001828154811061157b5761157b611a22565b9060005260206000200154905092915050565b6060600061159d836002611942565b6115a890600261192a565b67ffffffffffffffff8111156115c0576115c0611a38565b6040519080825280601f01601f1916602001820160405280156115ea576020820181803683370190505b509050600360fc1b8160008151811061160557611605611a22565b60200101906001600160f81b031916908160001a905350600f60fb1b8160018151811061163457611634611a22565b60200101906001600160f81b031916908160001a9053506000611658846002611942565b61166390600161192a565b90505b60018111156116db576f181899199a1a9b1b9c1cb0b131b232b360811b85600f166010811061169757611697611a22565b1a60f81b8282815181106116ad576116ad611a22565b60200101906001600160f81b031916908160001a90535060049490941c936116d4816119a4565b9050611666565b5083156109c75760405162461bcd60e51b815260206004820181905260248201527f537472696e67733a20686578206c656e67746820696e73756666696369656e7460448201526064016105fa565b80356001600160a01b038116811461174157600080fd5b919050565b60006020828403121561175857600080fd5b6109c78261172a565b6000806040838503121561177457600080fd5b61177d8361172a565b915061178b6020840161172a565b90509250929050565b6000806000606084860312156117a957600080fd5b6117b28461172a565b92506117c06020850161172a565b9150604084013590509250925092565b600080604083850312156117e357600080fd5b6117ec8361172a565b946020939093013593505050565b60006020828403121561180c57600080fd5b5035919050565b6000806040838503121561182657600080fd5b8235915061178b6020840161172a565b6000806040838503121561184957600080fd5b50508035926020909101359150565b60006020828403121561186a57600080fd5b81356001600160e01b0319811681146109c757600080fd5b7f416363657373436f6e74726f6c3a206163636f756e74200000000000000000008152600083516118ba816017850160208801611978565b7001034b99036b4b9b9b4b733903937b6329607d1b60179184019182015283516118eb816028840160208801611978565b01602801949350505050565b6020815260008251806020840152611916816040850160208701611978565b601f01601f19169190910160400192915050565b6000821982111561193d5761193d6119f6565b500190565b600081600019048311821515161561195c5761195c6119f6565b500290565b600082821015611973576119736119f6565b500390565b60005b8381101561199357818101518382015260200161197b565b83811115610e805750506000910152565b6000816119b3576119b36119f6565b506000190190565b600181811c908216806119cf57607f821691505b602082108114156119f057634e487b7160e01b600052602260045260246000fd5b50919050565b634e487b7160e01b600052601160045260246000fd5b634e487b7160e01b600052603160045260246000fd5b634e487b7160e01b600052603260045260246000fd5b634e487b7160e01b600052604160045260246000fdfea264697066735822122032f67cb3a37fc6a5151d1bd292e0e947930c27b68185df6d5ec62d016a88bbdd64736f6c63430008060033",
  "linkReferences": {},
  "deployedLinkReferences": {}
}