{
  "_format": "hh-sol-artifact-1",
  "contractName": "PolygoonzFarm",
  "sourceName": "contracts/PolygoonzFarm.sol",
  "abi": [
    {
      "inputs": [
        {
          "internalType": "contract IERC721",
          "name": "_nftToken",
          "type": "address"
        },
        {
          "internalType": "contract IERC20",
          "name": "_erc20Token",
          "type": "address"
        },
        {
          "internalType": "address",
          "name": "_daoAdmin",
          "type": "address"
        },
        {
          "internalType": "uint256",
          "name": "_tokensPerBlock",
          "type": "uint256"
        }
      ],
      "stateMutability": "nonpayable",
      "type": "constructor"
    },
    {
      "anonymous": false,
      "inputs": [
        {
          "indexed": true,
          "internalType": "address",
          "name": "staker",
          "type": "address"
        },
        {
          "indexed": false,
          "internalType": "uint256",
          "name": "tokenId",
          "type": "uint256"
        },
        {
          "indexed": false,
          "internalType": "uint256",
          "name": "blockNumber",
          "type": "uint256"
        }
      ],
      "name": "NftStaked",
      "type": "event"
    },
    {
      "anonymous": false,
      "inputs": [
        {
          "indexed": true,
          "internalType": "address",
          "name": "staker",
          "type": "address"
        },
        {
          "indexed": false,
          "internalType": "uint256",
          "name": "tokenId",
          "type": "uint256"
        },
        {
          "indexed": false,
          "internalType": "uint256",
          "name": "blockNumber",
          "type": "uint256"
        }
      ],
      "name": "NftUnStaked",
      "type": "event"
    },
    {
      "anonymous": false,
      "inputs": [
        {
          "indexed": true,
          "internalType": "address",
          "name": "staker",
          "type": "address"
        },
        {
          "indexed": false,
          "internalType": "uint256",
          "name": "tokenId",
          "type": "uint256"
        },
        {
          "indexed": false,
          "internalType": "uint256",
          "name": "stakeAmount",
          "type": "uint256"
        },
        {
          "indexed": false,
          "internalType": "uint256",
          "name": "fromBlock",
          "type": "uint256"
        },
        {
          "indexed": false,
          "internalType": "uint256",
          "name": "toBlock",
          "type": "uint256"
        }
      ],
      "name": "StakePayout",
      "type": "event"
    },
    {
      "anonymous": false,
      "inputs": [
        {
          "indexed": false,
          "internalType": "uint256",
          "name": "rewardPerBlock",
          "type": "uint256"
        }
      ],
      "name": "StakeRewardUpdated",
      "type": "event"
    },
    {
      "inputs": [
        {
          "internalType": "uint256",
          "name": "_tokensPerBlock",
          "type": "uint256"
        }
      ],
      "name": "changeTokensPerblock",
      "outputs": [],
      "stateMutability": "nonpayable",
      "type": "function"
    },
    {
      "inputs": [],
      "name": "daoAdmin",
      "outputs": [
        {
          "internalType": "address",
          "name": "",
          "type": "address"
        }
      ],
      "stateMutability": "view",
      "type": "function"
    },
    {
      "inputs": [],
      "name": "erc20Token",
      "outputs": [
        {
          "internalType": "contract IERC20",
          "name": "",
          "type": "address"
        }
      ],
      "stateMutability": "view",
      "type": "function"
    },
    {
      "inputs": [
        {
          "internalType": "uint256",
          "name": "tokenId",
          "type": "uint256"
        }
      ],
      "name": "getCurrentStakeEarned",
      "outputs": [
        {
          "internalType": "uint256",
          "name": "",
          "type": "uint256"
        }
      ],
      "stateMutability": "view",
      "type": "function"
    },
    {
      "inputs": [],
      "name": "getStakeContractBalance",
      "outputs": [
        {
          "internalType": "uint256",
          "name": "",
          "type": "uint256"
        }
      ],
      "stateMutability": "view",
      "type": "function"
    },
    {
      "inputs": [
        {
          "internalType": "uint256",
          "name": "tokenId",
          "type": "uint256"
        }
      ],
      "name": "harvest",
      "outputs": [],
      "stateMutability": "nonpayable",
      "type": "function"
    },
    {
      "inputs": [],
      "name": "nftToken",
      "outputs": [
        {
          "internalType": "contract IERC721",
          "name": "",
          "type": "address"
        }
      ],
      "stateMutability": "view",
      "type": "function"
    },
    {
      "inputs": [
        {
          "internalType": "address",
          "name": "",
          "type": "address"
        },
        {
          "internalType": "address",
          "name": "",
          "type": "address"
        },
        {
          "internalType": "uint256",
          "name": "",
          "type": "uint256"
        },
        {
          "internalType": "bytes",
          "name": "",
          "type": "bytes"
        }
      ],
      "name": "onERC721Received",
      "outputs": [
        {
          "internalType": "bytes4",
          "name": "",
          "type": "bytes4"
        }
      ],
      "stateMutability": "nonpayable",
      "type": "function"
    },
    {
      "inputs": [
        {
          "internalType": "uint256",
          "name": "",
          "type": "uint256"
        }
      ],
      "name": "receipt",
      "outputs": [
        {
          "internalType": "uint256",
          "name": "tokenId",
          "type": "uint256"
        },
        {
          "internalType": "uint256",
          "name": "stakedFromBlock",
          "type": "uint256"
        },
        {
          "internalType": "address",
          "name": "owner",
          "type": "address"
        }
      ],
      "stateMutability": "view",
      "type": "function"
    },
    {
      "inputs": [],
      "name": "reclaimTokens",
      "outputs": [],
      "stateMutability": "nonpayable",
      "type": "function"
    },
    {
      "inputs": [
        {
          "internalType": "uint256[]",
          "name": "tokenId",
          "type": "uint256[]"
        }
      ],
      "name": "stakeNFT",
      "outputs": [
        {
          "internalType": "bool",
          "name": "",
          "type": "bool"
        }
      ],
      "stateMutability": "nonpayable",
      "type": "function"
    },
    {
      "inputs": [],
      "name": "tokensPerBlock",
      "outputs": [
        {
          "internalType": "uint256",
          "name": "",
          "type": "uint256"
        }
      ],
      "stateMutability": "view",
      "type": "function"
    },
    {
      "inputs": [
        {
          "internalType": "uint256",
          "name": "tokenId",
          "type": "uint256"
        }
      ],
      "name": "unStakeNFT",
      "outputs": [
        {
          "internalType": "bool",
          "name": "",
          "type": "bool"
        }
      ],
      "stateMutability": "nonpayable",
      "type": "function"
    },
    {
      "inputs": [
        {
          "internalType": "uint256",
          "name": "_tokensPerBlock",
          "type": "uint256"
        }
      ],
      "name": "updateStakingReward",
      "outputs": [],
      "stateMutability": "nonpayable",
      "type": "function"
    }
  ],
  "bytecode": "0x608060405234801561001057600080fd5b506040516200149b3803806200149b833981016040819052610031916100b4565b6001600081905580546001600160a01b038681166001600160a01b03199283161790925560028054868416908316179055600380549285169290911691909117905560048190556040518181527f8299c7e9ca8ced629afb284155951141eded288b72d7d6b56cb24fbf999a9dfc9060200160405180910390a15050505061011f565b600080600080608085870312156100ca57600080fd5b84516100d581610107565b60208601519094506100e681610107565b60408601519093506100f781610107565b6060959095015193969295505050565b6001600160a01b038116811461011c57600080fd5b50565b61136c806200012f6000396000f3fe608060405234801561001057600080fd5b50600436106100ea5760003560e01c80638a13eea71161008c578063bf8f021811610066578063bf8f021814610242578063d06fcba81461024a578063ddc632621461025d578063e4928ff41461019057600080fd5b80638a13eea7146101c0578063a2aa4337146101d3578063a679c2ff1461022f57600080fd5b80631a1cb01f116100c85780631a1cb01f146101795780633af21cf3146101905780633c54caa5146101a5578063709158e6146101ad57600080fd5b806302de4387146100ef578063150b7a021461011f578063182c574414610156575b600080fd5b600354610102906001600160a01b031681565b6040516001600160a01b0390911681526020015b60405180910390f35b61013d61012d366004610f77565b630a85bd0160e11b949350505050565b6040516001600160e01b03199091168152602001610116565b610169610164366004611057565b610270565b6040519015158152602001610116565b61018260045481565b604051908152602001610116565b6101a361019e3660046110ee565b6102f2565b005b6101a3610357565b6101826101bb3660046110ee565b61048a565b600254610102906001600160a01b031681565b61020b6101e13660046110ee565b6005602052600090815260409020805460018201546002909201549091906001600160a01b031683565b6040805193845260208401929092526001600160a01b031690820152606001610116565b61016961023d3660046110ee565b6104a7565b6101826104e5565b600154610102906001600160a01b031681565b6101a361026b3660046110ee565b610566565b60006002600054141561029e5760405162461bcd60e51b81526004016102959061120e565b60405180910390fd5b600260009081555b828110156102e2576102cf8484838181106102c3576102c36112f5565b90506020020135610721565b50806102da816112c4565b9150506102a6565b5060019050600160005592915050565b6003546001600160a01b0316331461031c5760405162461bcd60e51b815260040161029590611120565b60048190556040518181527f8299c7e9ca8ced629afb284155951141eded288b72d7d6b56cb24fbf999a9dfc9060200160405180910390a150565b6003546001600160a01b031633146103815760405162461bcd60e51b815260040161029590611120565b6002546003546040516370a0823160e01b81523060048201526001600160a01b039283169263a9059cbb92169083906370a082319060240160206040518083038186803b1580156103d157600080fd5b505afa1580156103e5573d6000803e3d6000fd5b505050506040513d601f19601f820116820180604052508101906104099190611107565b6040516001600160e01b031960e085901b1681526001600160a01b0390921660048301526024820152604401602060405180830381600087803b15801561044f57600080fd5b505af1158015610463573d6000803e3d6000fd5b505050506040513d601f19601f8201168201806040525081019061048791906110cc565b50565b60006104a160045461049b84610a35565b90610a70565b92915050565b6000600260005414156104cc5760405162461bcd60e51b81526004016102959061120e565b60026000556104da82610a83565b600160005592915050565b6002546040516370a0823160e01b81523060048201526000916001600160a01b0316906370a082319060240160206040518083038186803b15801561052957600080fd5b505afa15801561053d573d6000803e3d6000fd5b505050506040513d601f19601f820116820180604052508101906105619190611107565b905090565b600260005414156105895760405162461bcd60e51b81526004016102959061120e565b60026000556001546040516331a9108f60e11b815260048101839052829130916001600160a01b0390911690636352211e9060240160206040518083038186803b1580156105d657600080fd5b505afa1580156105ea573d6000803e3d6000fd5b505050506040513d601f19601f8201168201806040525081019061060e9190610f5a565b6001600160a01b0316146106345760405162461bcd60e51b8152600401610295906111c1565b6000818152600560205260409020600101546106925760405162461bcd60e51b815260206004820152601f60248201527f6f6e6c795374616b65723a20546f6b656e206973206e6f74207374616b6564006044820152606401610295565b6000818152600560205260409020600201546001600160a01b031633146106cb5760405162461bcd60e51b815260040161029590611245565b600082815260056020526040902060010154829043116106fd5760405162461bcd60e51b815260040161029590611164565b61070683610cd4565b50506000908152600560205260408120436001918201559055565b600081815260056020526040812060010154156107805760405162461bcd60e51b815260206004820152601e60248201527f5374616b653a20546f6b656e20697320616c7265616479207374616b656400006044820152606401610295565b6001546040516331a9108f60e11b81526004810184905230916001600160a01b031690636352211e9060240160206040518083038186803b1580156107c457600080fd5b505afa1580156107d8573d6000803e3d6000fd5b505050506040513d601f19601f820116820180604052508101906107fc9190610f5a565b6001600160a01b0316141561086b5760405162461bcd60e51b815260206004820152602f60248201527f5374616b653a20546f6b656e20697320616c7265616479207374616b6564206960448201526e1b881d1a1a5cc818dbdb9d1c9858dd608a1b6064820152608401610295565b600154604051632142170760e11b8152336004820152306024820152604481018490526001600160a01b03909116906342842e0e90606401600060405180830381600087803b1580156108bd57600080fd5b505af11580156108d1573d6000803e3d6000fd5b50506001546040516331a9108f60e11b8152600481018690523093506001600160a01b039091169150636352211e9060240160206040518083038186803b15801561091b57600080fd5b505afa15801561092f573d6000803e3d6000fd5b505050506040513d601f19601f820116820180604052508101906109539190610f5a565b6001600160a01b0316146109b95760405162461bcd60e51b815260206004820152602760248201527f5374616b653a204661696c656420746f2074616b6520706f7373657373696f6e604482015266081bd98813919560ca1b6064820152608401610295565b600082815260056020526040908190208381554360018201819055600290910180546001600160a01b0319163390811790915591517f2209f5ab1e50b2a6cab82d8f63686a6991f8d51072e1c8c6e752570697c29c4691610a2591869190918252602082015260400190565b60405180910390a2506001919050565b600081815260056020526040812060010154610a5357506000919050565b6000828152600560205260409020600101546104a1904390610f4e565b6000610a7c828461128e565b9392505050565b6001546040516331a9108f60e11b815260048101839052600091839130916001600160a01b031690636352211e9060240160206040518083038186803b158015610acc57600080fd5b505afa158015610ae0573d6000803e3d6000fd5b505050506040513d601f19601f82011682018060405250810190610b049190610f5a565b6001600160a01b031614610b2a5760405162461bcd60e51b8152600401610295906111c1565b600081815260056020526040902060010154610b885760405162461bcd60e51b815260206004820152601f60248201527f6f6e6c795374616b65723a20546f6b656e206973206e6f74207374616b6564006044820152606401610295565b6000818152600560205260409020600201546001600160a01b03163314610bc15760405162461bcd60e51b815260040161029590611245565b60008381526005602052604090206001015483904311610bf35760405162461bcd60e51b815260040161029590611164565b610bfc84610cd4565b60008481526005602052604080822082815560018082019390935560020180546001600160a01b031916905590549051632142170760e11b8152306004820152336024820152604481018690526001600160a01b03909116906342842e0e90606401600060405180830381600087803b158015610c7857600080fd5b505af1158015610c8c573d6000803e3d6000fd5b5050604080518781524360208201523393507f32bc6caf9c29ce36f00f0386a4015fd281d5d4058d348d1a684a24a05c9b324d92500160405180910390a25060019392505050565b600081815260056020526040902060010154610d435760405162461bcd60e51b815260206004820152602860248201527f5f7061796f75745374616b653a2043616e206e6f74207374616b652066726f6d604482015267020626c6f636b20360c41b6064820152608401610295565b6000610d596001610d5384610a35565b90610f4e565b90506000610d7260045483610a7090919063ffffffff16565b6002546040516370a0823160e01b815230600482015291925082916001600160a01b03909116906370a082319060240160206040518083038186803b158015610dba57600080fd5b505afa158015610dce573d6000803e3d6000fd5b505050506040513d601f19601f82011682018060405250810190610df29190611107565b1015610e5a5760008381526005602090815260408083206001015481518781529283019390935281019190915243606082015233907f7e8de6a1e6682f9d48e1dca794f42aa811c7a6515c3e9bf64713fd7ece9e8e13906080015b60405180910390a2505050565b600280546000858152600560205260409081902090920154915163a9059cbb60e01b81526001600160a01b0392831660048201526024810184905291169063a9059cbb90604401602060405180830381600087803b158015610ebb57600080fd5b505af1158015610ecf573d6000803e3d6000fd5b505050506040513d601f19601f82011682018060405250810190610ef391906110cc565b506000838152600560209081526040918290206001015482518681529182018490529181019190915243606082015233907f7e8de6a1e6682f9d48e1dca794f42aa811c7a6515c3e9bf64713fd7ece9e8e1390608001610e4d565b6000610a7c82846112ad565b600060208284031215610f6c57600080fd5b8151610a7c81611321565b60008060008060808587031215610f8d57600080fd5b8435610f9881611321565b93506020850135610fa881611321565b925060408501359150606085013567ffffffffffffffff80821115610fcc57600080fd5b818701915087601f830112610fe057600080fd5b813581811115610ff257610ff261130b565b604051601f8201601f19908116603f0116810190838211818310171561101a5761101a61130b565b816040528281528a602084870101111561103357600080fd5b82602086016020830137600060208483010152809550505050505092959194509250565b6000806020838503121561106a57600080fd5b823567ffffffffffffffff8082111561108257600080fd5b818501915085601f83011261109657600080fd5b8135818111156110a557600080fd5b8660208260051b85010111156110ba57600080fd5b60209290920196919550909350505050565b6000602082840312156110de57600080fd5b81518015158114610a7c57600080fd5b60006020828403121561110057600080fd5b5035919050565b60006020828403121561111957600080fd5b5051919050565b60208082526024908201527f7265636c61696d546f6b656e733a2043616c6c6572206973206e6f74207468656040820152632044414f60e01b606082015260800190565b6020808252603f908201527f7265717569726554696d65456c61707365643a2043616e206e6f74207374616b60408201527f652f756e5374616b652f6861727665737420696e2073616d6520626c6f636b00606082015260800190565b6020808252602d908201527f6f6e6c795374616b65723a20436f6e7472616374206973206e6f74206f776e6560408201526c1c881bd9881d1a1a5cc8139195609a1b606082015260800190565b6020808252601f908201527f5265656e7472616e637947756172643a207265656e7472616e742063616c6c00604082015260600190565b60208082526029908201527f6f6e6c795374616b65723a2043616c6c6572206973206e6f74204e465420737460408201526830b5b29037bbb732b960b91b606082015260800190565b60008160001904831182151516156112a8576112a86112df565b500290565b6000828210156112bf576112bf6112df565b500390565b60006000198214156112d8576112d86112df565b5060010190565b634e487b7160e01b600052601160045260246000fd5b634e487b7160e01b600052603260045260246000fd5b634e487b7160e01b600052604160045260246000fd5b6001600160a01b038116811461048757600080fdfea2646970667358221220f037282f0328daa0b4faa77ff1b94c20e1e95b19287af0a7be5d5a9c74422a4e64736f6c63430008060033",
  "linkReferences": {},
  "deployedLinkReferences": {}
}