{
  "_format": "hh-sol-artifact-1",
  "contractName": "Polygoonz",
  "sourceName": "contracts/Polygoonz.sol",
  "abi": [
    {
      "inputs": [],
      "stateMutability": "nonpayable",
      "type": "constructor"
    },
    {
      "anonymous": false,
      "inputs": [
        {
          "indexed": true,
          "internalType": "address",
          "name": "owner",
          "type": "address"
        },
        {
          "indexed": true,
          "internalType": "address",
          "name": "approved",
          "type": "address"
        },
        {
          "indexed": true,
          "internalType": "uint256",
          "name": "tokenId",
          "type": "uint256"
        }
      ],
      "name": "Approval",
      "type": "event"
    },
    {
      "anonymous": false,
      "inputs": [
        {
          "indexed": true,
          "internalType": "address",
          "name": "owner",
          "type": "address"
        },
        {
          "indexed": true,
          "internalType": "address",
          "name": "operator",
          "type": "address"
        },
        {
          "indexed": false,
          "internalType": "bool",
          "name": "approved",
          "type": "bool"
        }
      ],
      "name": "ApprovalForAll",
      "type": "event"
    },
    {
      "anonymous": false,
      "inputs": [
        {
          "indexed": true,
          "internalType": "address",
          "name": "previousOwner",
          "type": "address"
        },
        {
          "indexed": true,
          "internalType": "address",
          "name": "newOwner",
          "type": "address"
        }
      ],
      "name": "OwnershipTransferred",
      "type": "event"
    },
    {
      "anonymous": false,
      "inputs": [
        {
          "indexed": true,
          "internalType": "address",
          "name": "from",
          "type": "address"
        },
        {
          "indexed": true,
          "internalType": "address",
          "name": "to",
          "type": "address"
        },
        {
          "indexed": true,
          "internalType": "uint256",
          "name": "tokenId",
          "type": "uint256"
        }
      ],
      "name": "Transfer",
      "type": "event"
    },
    {
      "inputs": [],
      "name": "POLYGOONZ_GIFT",
      "outputs": [
        {
          "internalType": "uint256",
          "name": "",
          "type": "uint256"
        }
      ],
      "stateMutability": "view",
      "type": "function"
    },
    {
      "inputs": [],
      "name": "POLYGOONZ_MAX",
      "outputs": [
        {
          "internalType": "uint256",
          "name": "",
          "type": "uint256"
        }
      ],
      "stateMutability": "view",
      "type": "function"
    },
    {
      "inputs": [],
      "name": "POLYGOONZ_PUBLIC",
      "outputs": [
        {
          "internalType": "uint256",
          "name": "",
          "type": "uint256"
        }
      ],
      "stateMutability": "view",
      "type": "function"
    },
    {
      "inputs": [],
      "name": "PRICE",
      "outputs": [
        {
          "internalType": "uint256",
          "name": "",
          "type": "uint256"
        }
      ],
      "stateMutability": "view",
      "type": "function"
    },
    {
      "inputs": [],
      "name": "PURCHASE_LIMIT",
      "outputs": [
        {
          "internalType": "uint256",
          "name": "",
          "type": "uint256"
        }
      ],
      "stateMutability": "view",
      "type": "function"
    },
    {
      "inputs": [
        {
          "internalType": "address[]",
          "name": "addresses",
          "type": "address[]"
        }
      ],
      "name": "addToAllowList",
      "outputs": [],
      "stateMutability": "nonpayable",
      "type": "function"
    },
    {
      "inputs": [
        {
          "internalType": "address",
          "name": "owner",
          "type": "address"
        }
      ],
      "name": "allowListClaimedBy",
      "outputs": [
        {
          "internalType": "uint256",
          "name": "",
          "type": "uint256"
        }
      ],
      "stateMutability": "view",
      "type": "function"
    },
    {
      "inputs": [],
      "name": "allowListMaxMint",
      "outputs": [
        {
          "internalType": "uint256",
          "name": "",
          "type": "uint256"
        }
      ],
      "stateMutability": "view",
      "type": "function"
    },
    {
      "inputs": [
        {
          "internalType": "address",
          "name": "to",
          "type": "address"
        },
        {
          "internalType": "uint256",
          "name": "tokenId",
          "type": "uint256"
        }
      ],
      "name": "approve",
      "outputs": [],
      "stateMutability": "nonpayable",
      "type": "function"
    },
    {
      "inputs": [
        {
          "internalType": "address",
          "name": "owner",
          "type": "address"
        }
      ],
      "name": "balanceOf",
      "outputs": [
        {
          "internalType": "uint256",
          "name": "",
          "type": "uint256"
        }
      ],
      "stateMutability": "view",
      "type": "function"
    },
    {
      "inputs": [],
      "name": "contractURI",
      "outputs": [
        {
          "internalType": "string",
          "name": "",
          "type": "string"
        }
      ],
      "stateMutability": "view",
      "type": "function"
    },
    {
      "inputs": [
        {
          "internalType": "uint256",
          "name": "tokenId",
          "type": "uint256"
        }
      ],
      "name": "getApproved",
      "outputs": [
        {
          "internalType": "address",
          "name": "",
          "type": "address"
        }
      ],
      "stateMutability": "view",
      "type": "function"
    },
    {
      "inputs": [
        {
          "internalType": "address[]",
          "name": "to",
          "type": "address[]"
        }
      ],
      "name": "gift",
      "outputs": [],
      "stateMutability": "nonpayable",
      "type": "function"
    },
    {
      "inputs": [],
      "name": "isActive",
      "outputs": [
        {
          "internalType": "bool",
          "name": "",
          "type": "bool"
        }
      ],
      "stateMutability": "view",
      "type": "function"
    },
    {
      "inputs": [],
      "name": "isAllowListActive",
      "outputs": [
        {
          "internalType": "bool",
          "name": "",
          "type": "bool"
        }
      ],
      "stateMutability": "view",
      "type": "function"
    },
    {
      "inputs": [
        {
          "internalType": "address",
          "name": "owner",
          "type": "address"
        },
        {
          "internalType": "address",
          "name": "operator",
          "type": "address"
        }
      ],
      "name": "isApprovedForAll",
      "outputs": [
        {
          "internalType": "bool",
          "name": "",
          "type": "bool"
        }
      ],
      "stateMutability": "view",
      "type": "function"
    },
    {
      "inputs": [],
      "name": "name",
      "outputs": [
        {
          "internalType": "string",
          "name": "",
          "type": "string"
        }
      ],
      "stateMutability": "view",
      "type": "function"
    },
    {
      "inputs": [
        {
          "internalType": "address",
          "name": "addr",
          "type": "address"
        }
      ],
      "name": "onAllowList",
      "outputs": [
        {
          "internalType": "bool",
          "name": "",
          "type": "bool"
        }
      ],
      "stateMutability": "view",
      "type": "function"
    },
    {
      "inputs": [],
      "name": "owner",
      "outputs": [
        {
          "internalType": "address",
          "name": "",
          "type": "address"
        }
      ],
      "stateMutability": "view",
      "type": "function"
    },
    {
      "inputs": [
        {
          "internalType": "uint256",
          "name": "tokenId",
          "type": "uint256"
        }
      ],
      "name": "ownerOf",
      "outputs": [
        {
          "internalType": "address",
          "name": "",
          "type": "address"
        }
      ],
      "stateMutability": "view",
      "type": "function"
    },
    {
      "inputs": [],
      "name": "proof",
      "outputs": [
        {
          "internalType": "string",
          "name": "",
          "type": "string"
        }
      ],
      "stateMutability": "view",
      "type": "function"
    },
    {
      "inputs": [
        {
          "internalType": "uint256",
          "name": "numberOfTokens",
          "type": "uint256"
        }
      ],
      "name": "purchase",
      "outputs": [],
      "stateMutability": "payable",
      "type": "function"
    },
    {
      "inputs": [
        {
          "internalType": "uint256",
          "name": "numberOfTokens",
          "type": "uint256"
        }
      ],
      "name": "purchaseAllowList",
      "outputs": [],
      "stateMutability": "payable",
      "type": "function"
    },
    {
      "inputs": [
        {
          "internalType": "address[]",
          "name": "addresses",
          "type": "address[]"
        }
      ],
      "name": "removeFromAllowList",
      "outputs": [],
      "stateMutability": "nonpayable",
      "type": "function"
    },
    {
      "inputs": [],
      "name": "renounceOwnership",
      "outputs": [],
      "stateMutability": "nonpayable",
      "type": "function"
    },
    {
      "inputs": [
        {
          "internalType": "address",
          "name": "from",
          "type": "address"
        },
        {
          "internalType": "address",
          "name": "to",
          "type": "address"
        },
        {
          "internalType": "uint256",
          "name": "tokenId",
          "type": "uint256"
        }
      ],
      "name": "safeTransferFrom",
      "outputs": [],
      "stateMutability": "nonpayable",
      "type": "function"
    },
    {
      "inputs": [
        {
          "internalType": "address",
          "name": "from",
          "type": "address"
        },
        {
          "internalType": "address",
          "name": "to",
          "type": "address"
        },
        {
          "internalType": "uint256",
          "name": "tokenId",
          "type": "uint256"
        },
        {
          "internalType": "bytes",
          "name": "_data",
          "type": "bytes"
        }
      ],
      "name": "safeTransferFrom",
      "outputs": [],
      "stateMutability": "nonpayable",
      "type": "function"
    },
    {
      "inputs": [
        {
          "internalType": "uint256",
          "name": "maxMint",
          "type": "uint256"
        }
      ],
      "name": "setAllowListMaxMint",
      "outputs": [],
      "stateMutability": "nonpayable",
      "type": "function"
    },
    {
      "inputs": [
        {
          "internalType": "address",
          "name": "operator",
          "type": "address"
        },
        {
          "internalType": "bool",
          "name": "approved",
          "type": "bool"
        }
      ],
      "name": "setApprovalForAll",
      "outputs": [],
      "stateMutability": "nonpayable",
      "type": "function"
    },
    {
      "inputs": [
        {
          "internalType": "string",
          "name": "URI",
          "type": "string"
        }
      ],
      "name": "setBaseURI",
      "outputs": [],
      "stateMutability": "nonpayable",
      "type": "function"
    },
    {
      "inputs": [
        {
          "internalType": "string",
          "name": "URI",
          "type": "string"
        }
      ],
      "name": "setContractURI",
      "outputs": [],
      "stateMutability": "nonpayable",
      "type": "function"
    },
    {
      "inputs": [
        {
          "internalType": "bool",
          "name": "_isActive",
          "type": "bool"
        }
      ],
      "name": "setIsActive",
      "outputs": [],
      "stateMutability": "nonpayable",
      "type": "function"
    },
    {
      "inputs": [
        {
          "internalType": "bool",
          "name": "_isAllowListActive",
          "type": "bool"
        }
      ],
      "name": "setIsAllowListActive",
      "outputs": [],
      "stateMutability": "nonpayable",
      "type": "function"
    },
    {
      "inputs": [
        {
          "internalType": "string",
          "name": "proofString",
          "type": "string"
        }
      ],
      "name": "setProof",
      "outputs": [],
      "stateMutability": "nonpayable",
      "type": "function"
    },
    {
      "inputs": [
        {
          "internalType": "string",
          "name": "revealedBaseURI",
          "type": "string"
        }
      ],
      "name": "setRevealedBaseURI",
      "outputs": [],
      "stateMutability": "nonpayable",
      "type": "function"
    },
    {
      "inputs": [
        {
          "internalType": "bytes4",
          "name": "interfaceId",
          "type": "bytes4"
        }
      ],
      "name": "supportsInterface",
      "outputs": [
        {
          "internalType": "bool",
          "name": "",
          "type": "bool"
        }
      ],
      "stateMutability": "view",
      "type": "function"
    },
    {
      "inputs": [],
      "name": "symbol",
      "outputs": [
        {
          "internalType": "string",
          "name": "",
          "type": "string"
        }
      ],
      "stateMutability": "view",
      "type": "function"
    },
    {
      "inputs": [
        {
          "internalType": "uint256",
          "name": "index",
          "type": "uint256"
        }
      ],
      "name": "tokenByIndex",
      "outputs": [
        {
          "internalType": "uint256",
          "name": "",
          "type": "uint256"
        }
      ],
      "stateMutability": "view",
      "type": "function"
    },
    {
      "inputs": [
        {
          "internalType": "address",
          "name": "owner",
          "type": "address"
        },
        {
          "internalType": "uint256",
          "name": "index",
          "type": "uint256"
        }
      ],
      "name": "tokenOfOwnerByIndex",
      "outputs": [
        {
          "internalType": "uint256",
          "name": "",
          "type": "uint256"
        }
      ],
      "stateMutability": "view",
      "type": "function"
    },
    {
      "inputs": [
        {
          "internalType": "uint256",
          "name": "tokenId",
          "type": "uint256"
        }
      ],
      "name": "tokenURI",
      "outputs": [
        {
          "internalType": "string",
          "name": "",
          "type": "string"
        }
      ],
      "stateMutability": "view",
      "type": "function"
    },
    {
      "inputs": [],
      "name": "totalGiftSupply",
      "outputs": [
        {
          "internalType": "uint256",
          "name": "",
          "type": "uint256"
        }
      ],
      "stateMutability": "view",
      "type": "function"
    },
    {
      "inputs": [],
      "name": "totalPublicSupply",
      "outputs": [
        {
          "internalType": "uint256",
          "name": "",
          "type": "uint256"
        }
      ],
      "stateMutability": "view",
      "type": "function"
    },
    {
      "inputs": [],
      "name": "totalSupply",
      "outputs": [
        {
          "internalType": "uint256",
          "name": "",
          "type": "uint256"
        }
      ],
      "stateMutability": "view",
      "type": "function"
    },
    {
      "inputs": [
        {
          "internalType": "address",
          "name": "from",
          "type": "address"
        },
        {
          "internalType": "address",
          "name": "to",
          "type": "address"
        },
        {
          "internalType": "uint256",
          "name": "tokenId",
          "type": "uint256"
        }
      ],
      "name": "transferFrom",
      "outputs": [],
      "stateMutability": "nonpayable",
      "type": "function"
    },
    {
      "inputs": [
        {
          "internalType": "address",
          "name": "newOwner",
          "type": "address"
        }
      ],
      "name": "transferOwnership",
      "outputs": [],
      "stateMutability": "nonpayable",
      "type": "function"
    },
    {
      "inputs": [],
      "name": "withdraw",
      "outputs": [],
      "stateMutability": "nonpayable",
      "type": "function"
    }
  ],
  "bytecode": "0x600a805461ffff60a01b191690556002600c5560a06040819052600060808190526200002e916011916200015c565b506040805160208101918290526000908190526200004f916012916200015c565b5060408051602081019182905260009081905262000070916013916200015c565b503480156200007e57600080fd5b5060408051808201825260098152682837b63cb3b7b7b73d60b91b602080830191825283518085019094526005845264282623a72d60d91b908401528151919291620000cd916000916200015c565b508051620000e39060019060208401906200015c565b50505062000100620000fa6200010660201b60201c565b6200010a565b6200023f565b3390565b600a80546001600160a01b038381166001600160a01b0319831681179093556040519116919082907f8be0079c531659141344cd1fd0a4f28419497f9722a3daafe3b4186f6b6457e090600090a35050565b8280546200016a9062000202565b90600052602060002090601f0160209004810192826200018e5760008555620001d9565b82601f10620001a957805160ff1916838001178555620001d9565b82800160010185558215620001d9579182015b82811115620001d9578251825591602001919060010190620001bc565b50620001e7929150620001eb565b5090565b5b80821115620001e75760008155600101620001ec565b600181811c908216806200021757607f821691505b602082108114156200023957634e487b7160e01b600052602260045260246000fd5b50919050565b612e1d806200024f6000396000f3fe60806040526004361061027c5760003560e01c8063718bc4af1161014f578063b88d4fde116100c1578063e8a3d4851161007a578063e8a3d48514610760578063e985e9c514610775578063efef39a1146107be578063f23347f5146107d1578063f2fde38b146107e4578063faf924cf1461080457600080fd5b8063b88d4fde146106c9578063c0c715ba146106e9578063c87b56dd146106ff578063d6f407c71461071f578063d75e611014610735578063e6a5931e1461074a57600080fd5b80638d859f3e116101135780638d859f3e1461061a5780638da5cb5b14610636578063938e3d7b1461065457806395d89b4114610674578063a22cb46514610689578063a51312c8146106a957600080fd5b8063718bc4af1461058f5780637263cfe2146105af57806378c5f554146105cf5780637a6685f1146105e45780637f44ab2f1461060457600080fd5b806329fc6bae116101f357806355f804b3116101ac57806355f804b3146104e55780636352211e146105055780636593cb8d146105255780636e83843a1461053a57806370a082311461055a578063715018a61461057a57600080fd5b806329fc6bae146104165780632f745c59146104375780633a065892146104575780633ccfd60b1461049057806342842e0e146104a55780634f6ccce7146104c557600080fd5b806315336f801161024557806315336f8014610360578063163e1e611461038057806318160ddd146103a057806322f3e2d4146103b557806323b872dd146103d65780632750fc78146103f657600080fd5b806208ffdd1461028157806301ffc9a7146102b457806306fdde03146102e4578063081812fc14610306578063095ea7b31461033e575b600080fd5b34801561028d57600080fd5b506102a161029c36600461276e565b610819565b6040519081526020015b60405180910390f35b3480156102c057600080fd5b506102d46102cf3660046129b8565b610892565b60405190151581526020016102ab565b3480156102f057600080fd5b506102f96108bd565b6040516102ab9190612b03565b34801561031257600080fd5b50610326610321366004612a52565b61094f565b6040516001600160a01b0390911681526020016102ab565b34801561034a57600080fd5b5061035e6103593660046128fe565b6109e4565b005b34801561036c57600080fd5b5061035e61037b3660046129f2565b610afa565b34801561038c57600080fd5b5061035e61039b366004612928565b610b30565b3480156103ac57600080fd5b506008546102a1565b3480156103c157600080fd5b50600a546102d490600160a01b900460ff1681565b3480156103e257600080fd5b5061035e6103f13660046127bc565b610c60565b34801561040257600080fd5b5061035e61041136600461299d565b610c91565b34801561042257600080fd5b50600a546102d490600160a81b900460ff1681565b34801561044357600080fd5b506102a16104523660046128fe565b610cd9565b34801561046357600080fd5b506102d461047236600461276e565b6001600160a01b03166000908152600f602052604090205460ff1690565b34801561049c57600080fd5b5061035e610d6f565b3480156104b157600080fd5b5061035e6104c03660046127bc565b610dcc565b3480156104d157600080fd5b506102a16104e0366004612a52565b610de7565b3480156104f157600080fd5b5061035e6105003660046129f2565b610e7a565b34801561051157600080fd5b50610326610520366004612a52565b610eb0565b34801561053157600080fd5b506102a1610f27565b34801561054657600080fd5b5061035e6105553660046129f2565b610f37565b34801561056657600080fd5b506102a161057536600461276e565b610f6d565b34801561058657600080fd5b5061035e610ff4565b34801561059b57600080fd5b5061035e6105aa36600461299d565b61102a565b3480156105bb57600080fd5b5061035e6105ca366004612928565b611072565b3480156105db57600080fd5b506102a1606481565b3480156105f057600080fd5b5061035e6105ff366004612a52565b611236565b34801561061057600080fd5b506102a1600c5481565b34801561062657600080fd5b506102a167016345785d8a000081565b34801561064257600080fd5b50600a546001600160a01b0316610326565b34801561066057600080fd5b5061035e61066f3660046129f2565b611265565b34801561068057600080fd5b506102f961129b565b34801561069557600080fd5b5061035e6106a43660046128d4565b6112aa565b3480156106b557600080fd5b5061035e6106c4366004612928565b61136f565b3480156106d557600080fd5b5061035e6106e43660046127f8565b61148b565b3480156106f557600080fd5b506102a1611f4081565b34801561070b57600080fd5b506102f961071a366004612a52565b6114c3565b34801561072b57600080fd5b506102a1600d5481565b34801561074157600080fd5b506102a1600881565b34801561075657600080fd5b506102a1600e5481565b34801561076c57600080fd5b506102f961167b565b34801561078157600080fd5b506102d4610790366004612789565b6001600160a01b03918216600090815260056020908152604080832093909416825291909152205460ff1690565b61035e6107cc366004612a52565b61168a565b61035e6107df366004612a52565b6118a4565b3480156107f057600080fd5b5061035e6107ff36600461276e565b611bad565b34801561081057600080fd5b506102f9611c48565b60006001600160a01b0382166108765760405162461bcd60e51b815260206004820152601e60248201527f5a65726f2061646472657373206e6f74206f6e20416c6c6f77204c697374000060448201526064015b60405180910390fd5b506001600160a01b031660009081526010602052604090205490565b60006001600160e01b0319821663780e9d6360e01b14806108b757506108b782611cd6565b92915050565b6060600080546108cc90612cf9565b80601f01602080910402602001604051908101604052809291908181526020018280546108f890612cf9565b80156109455780601f1061091a57610100808354040283529160200191610945565b820191906000526020600020905b81548152906001019060200180831161092857829003601f168201915b5050505050905090565b6000818152600260205260408120546001600160a01b03166109c85760405162461bcd60e51b815260206004820152602c60248201527f4552433732313a20617070726f76656420717565727920666f72206e6f6e657860448201526b34b9ba32b73a103a37b5b2b760a11b606482015260840161086d565b506000908152600460205260409020546001600160a01b031690565b60006109ef82610eb0565b9050806001600160a01b0316836001600160a01b03161415610a5d5760405162461bcd60e51b815260206004820152602160248201527f4552433732313a20617070726f76616c20746f2063757272656e74206f776e656044820152603960f91b606482015260840161086d565b336001600160a01b0382161480610a795750610a798133610790565b610aeb5760405162461bcd60e51b815260206004820152603860248201527f4552433732313a20617070726f76652063616c6c6572206973206e6f74206f7760448201527f6e6572206e6f7220617070726f76656420666f7220616c6c0000000000000000606482015260840161086d565b610af58383611d26565b505050565b600a546001600160a01b03163314610b245760405162461bcd60e51b815260040161086d90612bae565b610af5600b83836126a9565b600a546001600160a01b03163314610b5a5760405162461bcd60e51b815260040161086d90612bae565b610b67611f406064612c6b565b60085410610b875760405162461bcd60e51b815260040161086d90612c34565b600d54606490610b98908390612c6b565b1115610be65760405162461bcd60e51b815260206004820152601e60248201527f4e6f7420656e6f75676820746f6b656e73206c65667420746f20676966740000604482015260640161086d565b60005b81811015610af5576000600d546001610c029190612c6b565b90506001600d6000828254610c179190612c6b565b90915550610c4d9050848484818110610c3257610c32612da5565b9050602002016020810190610c47919061276e565b82611d94565b5080610c5881612d34565b915050610be9565b610c6a3382611dae565b610c865760405162461bcd60e51b815260040161086d90612be3565b610af5838383611ea5565b600a546001600160a01b03163314610cbb5760405162461bcd60e51b815260040161086d90612bae565b600a8054911515600160a01b0260ff60a01b19909216919091179055565b6000610ce483610f6d565b8210610d465760405162461bcd60e51b815260206004820152602b60248201527f455243373231456e756d657261626c653a206f776e657220696e646578206f7560448201526a74206f6620626f756e647360a81b606482015260840161086d565b506001600160a01b03919091166000908152600660209081526040808320938352929052205490565b600a546001600160a01b03163314610d995760405162461bcd60e51b815260040161086d90612bae565b6040514790339082156108fc029083906000818181858888f19350505050158015610dc8573d6000803e3d6000fd5b5050565b610af58383836040518060200160405280600081525061148b565b6000610df260085490565b8210610e555760405162461bcd60e51b815260206004820152602c60248201527f455243373231456e756d657261626c653a20676c6f62616c20696e646578206f60448201526b7574206f6620626f756e647360a01b606482015260840161086d565b60088281548110610e6857610e68612da5565b90600052602060002001549050919050565b600a546001600160a01b03163314610ea45760405162461bcd60e51b815260040161086d90612bae565b610af5601283836126a9565b6000818152600260205260408120546001600160a01b0316806108b75760405162461bcd60e51b815260206004820152602960248201527f4552433732313a206f776e657220717565727920666f72206e6f6e657869737460448201526832b73a103a37b5b2b760b91b606482015260840161086d565b610f34611f406064612c6b565b81565b600a546001600160a01b03163314610f615760405162461bcd60e51b815260040161086d90612bae565b610af5601383836126a9565b60006001600160a01b038216610fd85760405162461bcd60e51b815260206004820152602a60248201527f4552433732313a2062616c616e636520717565727920666f7220746865207a65604482015269726f206164647265737360b01b606482015260840161086d565b506001600160a01b031660009081526003602052604090205490565b600a546001600160a01b0316331461101e5760405162461bcd60e51b815260040161086d90612bae565b6110286000612050565b565b600a546001600160a01b031633146110545760405162461bcd60e51b815260040161086d90612bae565b600a8054911515600160a81b0260ff60a81b19909216919091179055565b600a546001600160a01b0316331461109c5760405162461bcd60e51b815260040161086d90612bae565b60005b81811015610af55760008383838181106110bb576110bb612da5565b90506020020160208101906110d0919061276e565b6001600160a01b031614156111275760405162461bcd60e51b815260206004820152601a60248201527f43616e27742061646420746865206e756c6c2061646472657373000000000000604482015260640161086d565b6001600f600085858581811061113f5761113f612da5565b9050602002016020810190611154919061276e565b6001600160a01b0316815260208101919091526040016000908120805460ff19169215159290921790915560108185858581811061119457611194612da5565b90506020020160208101906111a9919061276e565b6001600160a01b03166001600160a01b0316815260200190815260200160002054116111d6576000611223565b601060008484848181106111ec576111ec612da5565b9050602002016020810190611201919061276e565b6001600160a01b03166001600160a01b03168152602001908152602001600020545b508061122e81612d34565b91505061109f565b600a546001600160a01b031633146112605760405162461bcd60e51b815260040161086d90612bae565b600c55565b600a546001600160a01b0316331461128f5760405162461bcd60e51b815260040161086d90612bae565b610af5601183836126a9565b6060600180546108cc90612cf9565b6001600160a01b0382163314156113035760405162461bcd60e51b815260206004820152601960248201527f4552433732313a20617070726f766520746f2063616c6c657200000000000000604482015260640161086d565b3360008181526005602090815260408083206001600160a01b03871680855290835292819020805460ff191686151590811790915590519081529192917f17307eab39ab6107e8899845ad3d59bd9653f200f220920489ca2b5937696c31910160405180910390a35050565b600a546001600160a01b031633146113995760405162461bcd60e51b815260040161086d90612bae565b60005b81811015610af55760008383838181106113b8576113b8612da5565b90506020020160208101906113cd919061276e565b6001600160a01b031614156114245760405162461bcd60e51b815260206004820152601a60248201527f43616e27742061646420746865206e756c6c2061646472657373000000000000604482015260640161086d565b6000600f600085858581811061143c5761143c612da5565b9050602002016020810190611451919061276e565b6001600160a01b031681526020810191909152604001600020805460ff19169115159190911790558061148381612d34565b91505061139c565b6114953383611dae565b6114b15760405162461bcd60e51b815260040161086d90612be3565b6114bd848484846120a2565b50505050565b6000818152600260205260409020546060906001600160a01b03166115215760405162461bcd60e51b8152602060048201526014602482015273151bdad95b88191bd95cc81b9bdd08195e1a5cdd60621b604482015260640161086d565b60006013805461153090612cf9565b80601f016020809104026020016040519081016040528092919081815260200182805461155c90612cf9565b80156115a95780601f1061157e576101008083540402835291602001916115a9565b820191906000526020600020905b81548152906001019060200180831161158c57829003601f168201915b50505050509050600081511161164957601280546115c690612cf9565b80601f01602080910402602001604051908101604052809291908181526020018280546115f290612cf9565b801561163f5780601f106116145761010080835404028352916020019161163f565b820191906000526020600020905b81548152906001019060200180831161162257829003601f168201915b5050505050611674565b80611653846120d5565b604051602001611664929190612a97565b6040516020818303038152906040525b9392505050565b6060601180546108cc90612cf9565b600a54600160a01b900460ff166116dc5760405162461bcd60e51b8152602060048201526016602482015275436f6e7472616374206973206e6f742061637469766560501b604482015260640161086d565b600a54600160a81b900460ff16156117365760405162461bcd60e51b815260206004820152601d60248201527f4f6e6c7920616c6c6f77696e672066726f6d20416c6c6f77204c697374000000604482015260640161086d565b611743611f406064612c6b565b600854106117635760405162461bcd60e51b815260040161086d90612c34565b60088111156117b45760405162461bcd60e51b815260206004820152601b60248201527f576f756c64206578636565642050555243484153455f4c494d49540000000000604482015260640161086d565b611f40600e54106117d75760405162461bcd60e51b815260040161086d90612b68565b346117ea8267016345785d8a0000612c97565b11156118385760405162461bcd60e51b815260206004820152601c60248201527f45544820616d6f756e74206973206e6f742073756666696369656e7400000000604482015260640161086d565b60005b81811015610dc857611f40600e541015611892576000600e5460646118609190612c6b565b61186b906001612c6b565b90506001600e60008282546118809190612c6b565b9091555061189090503382611d94565b505b8061189c81612d34565b91505061183b565b600a54600160a01b900460ff166118f65760405162461bcd60e51b8152602060048201526016602482015275436f6e7472616374206973206e6f742061637469766560501b604482015260640161086d565b600a54600160a81b900460ff1661194f5760405162461bcd60e51b815260206004820152601860248201527f416c6c6f77204c697374206973206e6f74206163746976650000000000000000604482015260640161086d565b336000908152600f602052604090205460ff166119ae5760405162461bcd60e51b815260206004820152601d60248201527f596f7520617265206e6f74206f6e2074686520416c6c6f77204c697374000000604482015260640161086d565b6119bb611f406064612c6b565b600854106119db5760405162461bcd60e51b815260040161086d90612c34565b600c54811115611a2d5760405162461bcd60e51b815260206004820181905260248201527f43616e6e6f742070757263686173652074686973206d616e7920746f6b656e73604482015260640161086d565b611f4081600e54611a3e9190612c6b565b1115611a5c5760405162461bcd60e51b815260040161086d90612b68565b600c5433600090815260106020526040902054611a7a908390612c6b565b1115611ac85760405162461bcd60e51b815260206004820152601c60248201527f50757263686173652065786365656473206d617820616c6c6f77656400000000604482015260640161086d565b34611adb8267016345785d8a0000612c97565b1115611b295760405162461bcd60e51b815260206004820152601c60248201527f45544820616d6f756e74206973206e6f742073756666696369656e7400000000604482015260640161086d565b60005b81811015610dc8576000600e546064611b459190612c6b565b611b50906001612c6b565b90506001600e6000828254611b659190612c6b565b9091555050336000908152601060205260408120805460019290611b8a908490612c6b565b90915550611b9a90503382611d94565b5080611ba581612d34565b915050611b2c565b600a546001600160a01b03163314611bd75760405162461bcd60e51b815260040161086d90612bae565b6001600160a01b038116611c3c5760405162461bcd60e51b815260206004820152602660248201527f4f776e61626c653a206e6577206f776e657220697320746865207a65726f206160448201526564647265737360d01b606482015260840161086d565b611c4581612050565b50565b600b8054611c5590612cf9565b80601f0160208091040260200160405190810160405280929190818152602001828054611c8190612cf9565b8015611cce5780601f10611ca357610100808354040283529160200191611cce565b820191906000526020600020905b815481529060010190602001808311611cb157829003601f168201915b505050505081565b60006001600160e01b031982166380ac58cd60e01b1480611d0757506001600160e01b03198216635b5e139f60e01b145b806108b757506301ffc9a760e01b6001600160e01b03198316146108b7565b600081815260046020526040902080546001600160a01b0319166001600160a01b0384169081179091558190611d5b82610eb0565b6001600160a01b03167f8c5be1e5ebec7d5bd14f71427d1e84f3dd0314c0f7b2291e5b200ac8c7c3b92560405160405180910390a45050565b610dc88282604051806020016040528060008152506121d3565b6000818152600260205260408120546001600160a01b0316611e275760405162461bcd60e51b815260206004820152602c60248201527f4552433732313a206f70657261746f7220717565727920666f72206e6f6e657860448201526b34b9ba32b73a103a37b5b2b760a11b606482015260840161086d565b6000611e3283610eb0565b9050806001600160a01b0316846001600160a01b03161480611e6d5750836001600160a01b0316611e628461094f565b6001600160a01b0316145b80611e9d57506001600160a01b0380821660009081526005602090815260408083209388168352929052205460ff165b949350505050565b826001600160a01b0316611eb882610eb0565b6001600160a01b031614611f205760405162461bcd60e51b815260206004820152602960248201527f4552433732313a207472616e73666572206f6620746f6b656e2074686174206960448201526839903737ba1037bbb760b91b606482015260840161086d565b6001600160a01b038216611f825760405162461bcd60e51b8152602060048201526024808201527f4552433732313a207472616e7366657220746f20746865207a65726f206164646044820152637265737360e01b606482015260840161086d565b611f8d838383612206565b611f98600082611d26565b6001600160a01b0383166000908152600360205260408120805460019290611fc1908490612cb6565b90915550506001600160a01b0382166000908152600360205260408120805460019290611fef908490612c6b565b909155505060008181526002602052604080822080546001600160a01b0319166001600160a01b0386811691821790925591518493918716917fddf252ad1be2c89b69c2b068fc378daa952ba7f163c4a11628f55a4df523b3ef91a4505050565b600a80546001600160a01b038381166001600160a01b0319831681179093556040519116919082907f8be0079c531659141344cd1fd0a4f28419497f9722a3daafe3b4186f6b6457e090600090a35050565b6120ad848484611ea5565b6120b9848484846122be565b6114bd5760405162461bcd60e51b815260040161086d90612b16565b6060816120f95750506040805180820190915260018152600360fc1b602082015290565b8160005b8115612123578061210d81612d34565b915061211c9050600a83612c83565b91506120fd565b60008167ffffffffffffffff81111561213e5761213e612dbb565b6040519080825280601f01601f191660200182016040528015612168576020820181803683370190505b5090505b8415611e9d5761217d600183612cb6565b915061218a600a86612d4f565b612195906030612c6b565b60f81b8183815181106121aa576121aa612da5565b60200101906001600160f81b031916908160001a9053506121cc600a86612c83565b945061216c565b6121dd83836123cb565b6121ea60008484846122be565b610af55760405162461bcd60e51b815260040161086d90612b16565b6001600160a01b0383166122615761225c81600880546000838152600960205260408120829055600182018355919091527ff3f7a9fe364faab93b216da50a3214154f22a0a2b415b23a84c8169e8b636ee30155565b612284565b816001600160a01b0316836001600160a01b031614612284576122848382612519565b6001600160a01b03821661229b57610af5816125b6565b826001600160a01b0316826001600160a01b031614610af557610af58282612665565b60006001600160a01b0384163b156123c057604051630a85bd0160e11b81526001600160a01b0385169063150b7a0290612302903390899088908890600401612ac6565b602060405180830381600087803b15801561231c57600080fd5b505af192505050801561234c575060408051601f3d908101601f19168201909252612349918101906129d5565b60015b6123a6573d80801561237a576040519150601f19603f3d011682016040523d82523d6000602084013e61237f565b606091505b50805161239e5760405162461bcd60e51b815260040161086d90612b16565b805181602001fd5b6001600160e01b031916630a85bd0160e11b149050611e9d565b506001949350505050565b6001600160a01b0382166124215760405162461bcd60e51b815260206004820181905260248201527f4552433732313a206d696e7420746f20746865207a65726f2061646472657373604482015260640161086d565b6000818152600260205260409020546001600160a01b0316156124865760405162461bcd60e51b815260206004820152601c60248201527f4552433732313a20746f6b656e20616c7265616479206d696e74656400000000604482015260640161086d565b61249260008383612206565b6001600160a01b03821660009081526003602052604081208054600192906124bb908490612c6b565b909155505060008181526002602052604080822080546001600160a01b0319166001600160a01b03861690811790915590518392907fddf252ad1be2c89b69c2b068fc378daa952ba7f163c4a11628f55a4df523b3ef908290a45050565b6000600161252684610f6d565b6125309190612cb6565b600083815260076020526040902054909150808214612583576001600160a01b03841660009081526006602090815260408083208584528252808320548484528184208190558352600790915290208190555b5060009182526007602090815260408084208490556001600160a01b039094168352600681528383209183525290812055565b6008546000906125c890600190612cb6565b600083815260096020526040812054600880549394509092849081106125f0576125f0612da5565b90600052602060002001549050806008838154811061261157612611612da5565b600091825260208083209091019290925582815260099091526040808220849055858252812055600880548061264957612649612d8f565b6001900381819060005260206000200160009055905550505050565b600061267083610f6d565b6001600160a01b039093166000908152600660209081526040808320868452825280832085905593825260079052919091209190915550565b8280546126b590612cf9565b90600052602060002090601f0160209004810192826126d7576000855561271d565b82601f106126f05782800160ff1982351617855561271d565b8280016001018555821561271d579182015b8281111561271d578235825591602001919060010190612702565b5061272992915061272d565b5090565b5b80821115612729576000815560010161272e565b80356001600160a01b038116811461275957600080fd5b919050565b8035801515811461275957600080fd5b60006020828403121561278057600080fd5b61167482612742565b6000806040838503121561279c57600080fd5b6127a583612742565b91506127b360208401612742565b90509250929050565b6000806000606084860312156127d157600080fd5b6127da84612742565b92506127e860208501612742565b9150604084013590509250925092565b6000806000806080858703121561280e57600080fd5b61281785612742565b935061282560208601612742565b925060408501359150606085013567ffffffffffffffff8082111561284957600080fd5b818701915087601f83011261285d57600080fd5b81358181111561286f5761286f612dbb565b604051601f8201601f19908116603f0116810190838211818310171561289757612897612dbb565b816040528281528a60208487010111156128b057600080fd5b82602086016020830137600060208483010152809550505050505092959194509250565b600080604083850312156128e757600080fd5b6128f083612742565b91506127b36020840161275e565b6000806040838503121561291157600080fd5b61291a83612742565b946020939093013593505050565b6000806020838503121561293b57600080fd5b823567ffffffffffffffff8082111561295357600080fd5b818501915085601f83011261296757600080fd5b81358181111561297657600080fd5b8660208260051b850101111561298b57600080fd5b60209290920196919550909350505050565b6000602082840312156129af57600080fd5b6116748261275e565b6000602082840312156129ca57600080fd5b813561167481612dd1565b6000602082840312156129e757600080fd5b815161167481612dd1565b60008060208385031215612a0557600080fd5b823567ffffffffffffffff80821115612a1d57600080fd5b818501915085601f830112612a3157600080fd5b813581811115612a4057600080fd5b86602082850101111561298b57600080fd5b600060208284031215612a6457600080fd5b5035919050565b60008151808452612a83816020860160208601612ccd565b601f01601f19169290920160200192915050565b60008351612aa9818460208801612ccd565b835190830190612abd818360208801612ccd565b01949350505050565b6001600160a01b0385811682528416602082015260408101839052608060608201819052600090612af990830184612a6b565b9695505050505050565b6020815260006116746020830184612a6b565b60208082526032908201527f4552433732313a207472616e7366657220746f206e6f6e20455243373231526560408201527131b2b4bb32b91034b6b83632b6b2b73a32b960711b606082015260800190565b60208082526026908201527f507572636861736520776f756c642065786365656420504f4c59474f4f4e5a5f6040820152655055424c494360d01b606082015260800190565b6020808252818101527f4f776e61626c653a2063616c6c6572206973206e6f7420746865206f776e6572604082015260600190565b60208082526031908201527f4552433732313a207472616e736665722063616c6c6572206973206e6f74206f6040820152701ddb995c881b9bdc88185c1c1c9bdd9959607a1b606082015260800190565b6020808252601b908201527f416c6c20746f6b656e732068617665206265656e206d696e7465640000000000604082015260600190565b60008219821115612c7e57612c7e612d63565b500190565b600082612c9257612c92612d79565b500490565b6000816000190483118215151615612cb157612cb1612d63565b500290565b600082821015612cc857612cc8612d63565b500390565b60005b83811015612ce8578181015183820152602001612cd0565b838111156114bd5750506000910152565b600181811c90821680612d0d57607f821691505b60208210811415612d2e57634e487b7160e01b600052602260045260246000fd5b50919050565b6000600019821415612d4857612d48612d63565b5060010190565b600082612d5e57612d5e612d79565b500690565b634e487b7160e01b600052601160045260246000fd5b634e487b7160e01b600052601260045260246000fd5b634e487b7160e01b600052603160045260246000fd5b634e487b7160e01b600052603260045260246000fd5b634e487b7160e01b600052604160045260246000fd5b6001600160e01b031981168114611c4557600080fdfea2646970667358221220296b54a31ee050378660043a37cc3271be9efd782e79e45cc30317e9186da91964736f6c63430008060033",
  "linkReferences": {},
  "deployedLinkReferences": {}
}